:020000040800F2
:1000000000000220B9270008B5250008BB2500081C
:10001000C1250008C7250008CD2500080000000004
:10002000000000000000000000000000D3250008D0
:10003000E125000800000000EF250008FD2500086C
:1000400009280008092800080928000809280008CC
:1000500009280008092800080928000809280008BC
:1000600009280008092800080928000809280008AC
:10007000092800080928000809280008092800089C
:10008000092800080928000809280008092800088C
:10009000092800080928000809280008092800087C
:1000A000092800080928000809280008092800086C
:1000B000092800080928000809280008092800085C
:1000C000092800080928000809280008092800084C
:1000D00009280008AD9C0008092800080928000824
:1000E000092800080928000809280008092800082C
:1000F000092800080928000809280008092800081C
:10010000092800080928000809280008092800080B
:1001100009280008092800080928000809280008FB
:1001200009280008092800080928000809280008EB
:1001300009280008092800080928000809280008DB
:1001400009280008092800080928000809280008CB
:1001500009280008092800080928000809280008BB
:1001600009280008092800080928000809280008AB
:1001700009280008092800080928000800000000D4
:08018000092800080928000805
:1001900010B5054C237833B9044B13B10448AFF3C1
:1001A00000800123237010BD103A002000000000E1
:1001B000DCC9000808B5034B1BB103490348AFF382
:1001C000008008BD00000000143A0020DCC90008CF
:1001D00010F8012B11F8013B012A28BF9A42F7D0F1
:1001E000D01A70470000000000000000000000006E
:1001F00001F0FF01102A2BDB10F0070F08D010F8D8
:10020000013B013A8B422DD010F0070F42B3F6D1DB
:10021000F0B441EA012141EA014122F007047FF0F4
:1002200000070023F0E80256083C85EA010586EA4B
:10023000010685FA47F5A3FA87F586FA47F6A5FA87
:1002400087F68EB9EED1F0BC01F0FF0102F0070293
:1002500032B110F8013B013A83EA010313B1F8D13E
:100260000020704701387047002D06BF354603381F
:10027000073815F0010F07D1013015F4807F02BF58
:10028000013015F4C03F0130F0BC0138704700BFA9
:10029000034613F8012B002AFBD1181A01387047C6
:1002A00081F0004102E000BF83F0004330B54FEA27
:1002B00041044FEA430594EA050F08BF90EA020F94
:1002C0001FBF54EA000C55EA020C7FEA645C7FEA27
:1002D000655C00F0E2804FEA5454D4EB5555B8BF4A
:1002E0006D420CDD2C4480EA020281EA030382EABB
:1002F000000083EA010180EA020281EA0303362D4D
:1003000088BF30BD11F0004F4FEA01314FF4801C1F
:100310004CEA113102D0404261EB410113F0004F31
:100320004FEA03334CEA133302D0524263EB4303E8
:1003300094EA050F00F0A780A4F10104D5F1200E86
:100340000DDB02FA0EFC22FA05F2801841F10001E1
:1003500003FA0EF2801843FA05F359410EE0A5F1B5
:1003600020050EF1200E012A03FA0EFC28BF4CF0E6
:10037000020C43FA05F3C01851EBE37101F000459C
:1003800007D54FF0000EDCF1000C7EEB00006EEBA9
:100390000101B1F5801F1BD3B1F5001F0CD3490833
:1003A0005FEA30004FEA3C0C04F101044FEA44528A
:1003B00012F5800F80F09A80BCF1004F08BF5FEA11
:1003C000500C50F1000041EB045141EA050130BDF1
:1003D0005FEA4C0C404141EB0101013C28BFB1F503
:1003E000801FE9D291F0000F04BF01460020B1FA4E
:1003F00081F308BF2033A3F10B03B3F120020CDA21
:100400000C3208DD02F1140CC2F10C0201FA0CF0FE
:1004100021FA02F10CE002F11402D8BFC2F1200C63
:1004200001FA02F120FA0CFCDCBF41EA0C01904019
:10043000E41AA2BF01EB0451294330BD6FEA040462
:100440001F3C1CDA0C340EDC04F11404C4F120024D
:1004500020FA04F001FA02F340EA030021FA04F35F
:1004600045EA030130BDC4F10C04C4F1200220FAB6
:1004700002F001FA04F340EA0300294630BD21FAF4
:1004800004F0294630BD94F0000F83F4801306BFBA
:1004900081F480110134013D4EE77FEA645C18BFAE
:1004A0007FEA655C29D094EA050F08BF90EA020F45
:1004B00005D054EA000C04BF1946104630BD91EA3D
:1004C000030F1EBF0021002030BD5FEA545C05D140
:1004D0004000494128BF41F0004130BD14F580047F
:1004E0003CBF01F5801130BD01F0004545F0FE41F3
:1004F00041F470014FF0000030BD7FEA645C1ABF28
:10050000194610467FEA655C1CBF0B46024650EA5E
:10051000013406BF52EA033591EA030F41F400218A
:1005200030BD00BF90F0000F04BF0021704730B510
:100530004FF4806404F132044FF000054FF00001E5
:1005400050E700BF90F0000F04BF0021704730B5A6
:100550004FF4806404F1320410F0004548BF40427B
:100560004FF000013EE700BF42004FEAE2014FEAD0
:1005700031014FEA02701FBF12F07F4393F07F4FAB
:1005800081F06051704732F07F4208BF704793F0AE
:100590007F4F04BF41F40021704730B54FF46074C1
:1005A00001F0004521F000411CE700BF50EA0102C4
:1005B00008BF704730B54FF000050AE050EA01026D
:1005C00008BF704730B511F0004502D5404261EBDD
:1005D00041014FF4806404F132045FEA915C3FF41E
:1005E000D8AE4FF003025FEADC0C18BF03325FEABB
:1005F000DC0C18BF033202EBDC02C2F1200300FA6C
:1006000003FC20FA02F001FA03FE40EA0E0021FA90
:1006100002F11444BDE600BF70B54FF0FF0C4CF47E
:10062000E06C1CEA11541DBF1CEA135594EA0C0F30
:1006300095EA0C0F00F0DEF82C4481EA030621EA6B
:100640004C5123EA4C5350EA013518BF52EA0335A6
:1006500041F4801143F4801338D0A0FB02CE4FF058
:100660000005E1FB02E506F00042E0FB03E54FF088
:100670000006E1FB03569CF0000F18BF4EF0010E80
:10068000A4F1FF04B6F5007F64F5407404D25FEA7C
:100690004E0E6D4146EB060642EAC62141EA55512F
:1006A0004FEAC52040EA5E504FEACE2EB4F1FD0C71
:1006B00088BFBCF5E06F1ED8BEF1004F08BF5FEAEF
:1006C000500E50F1000041EB045170BD06F00046A1
:1006D00046EA010140EA020081EA0301B4EB5C044E
:1006E000C2BFD4EB0C0541EA045170BD41F4801146
:1006F0004FF0000E013C00F3AB8014F1360FDEBF6B
:10070000002001F0004170BDC4F10004203C35DA46
:100710000C341BDC04F11404C4F1200500FA05F3C9
:1007200020FA04F001FA05F240EA020001F000426A
:1007300021F0004110EBD37021FA04F642EB0601E0
:100740005EEA430E08BF20EAD37070BDC4F10C040A
:10075000C4F1200500FA04F320FA05F001FA04F2CE
:1007600040EA020001F0004110EBD37041F10001BA
:100770005EEA430E08BF20EAD37070BDC4F12005C5
:1007800000FA05F24EEA020E20FA04F301FA05F22D
:1007900043EA020321FA04F001F0004121FA04F2D5
:1007A00020EA020000EBD3705EEA430E08BF20EAA5
:1007B000D37070BD94F0000F0FD101F000464000DF
:1007C00041EB010111F4801F08BF013CF7D041EA61
:1007D000060195F0000F18BF704703F00046520065
:1007E00043EB030313F4801F08BF013DF7D043EA36
:1007F0000603704794EA0C0F0CEA135518BF95EAEC
:100800000C0F0CD050EA410618BF52EA4306D1D172
:1008100081EA030101F000414FF0000070BD50EA91
:10082000410606BF1046194652EA430619D094EA1B
:100830000C0F02D150EA013613D195EA0C0F05D105
:1008400052EA03361CBF104619460AD181EA030159
:1008500001F0004141F0FE4141F470014FF0000011
:1008600070BD41F0FE4141F4780170BD70B54FF0AC
:10087000FF0C4CF4E06C1CEA11541DBF1CEA13552C
:1008800094EA0C0F95EA0C0F00F0A7F8A4EB05040E
:1008900081EA030E52EA03354FEA013100F0888005
:1008A0004FEA03334FF0805545EA131343EA1263CE
:1008B0004FEA022245EA111545EA10654FEA002683
:1008C0000EF000419D4208BF964244F1FD0404F53C
:1008D000407402D25B084FEA3202B61A65EB030598
:1008E0005B084FEA32024FF480104FF4002CB6EB55
:1008F000020E75EB030E22BFB61A754640EA0C00D5
:100900005B084FEA3202B6EB020E75EB030E22BF14
:10091000B61A754640EA5C005B084FEA3202B6EB55
:10092000020E75EB030E22BFB61A754640EA9C0014
:100930005B084FEA3202B6EB020E75EB030E22BFE4
:10094000B61A754640EADC0055EA060E18D04FEAA2
:10095000051545EA16754FEA06164FEAC30343EA42
:1009600052734FEAC2025FEA1C1CC0D111F4801F0F
:100970000BD141EA00014FF000004FF0004CB6E708
:1009800011F4801F04BF01430020B4F1FD0C88BFA7
:10099000BCF5E06F3FF6AFAEB5EB030C04BFB6EBB2
:1009A000020C5FEA500C50F1000041EB045170BDA5
:1009B0000EF0004E4EEA113114EB5C04C2BFD4EBD2
:1009C0000C0541EA045170BD41F480114FF0000E56
:1009D000013C90E645EA060E8DE60CEA135594EAD2
:1009E0000C0F08BF95EA0C0F3FF43BAF94EA0C0FD5
:1009F0000AD150EA01347FF434AF95EA0C0F7FF44A
:100A000025AF104619462CE795EA0C0F06D152EA9D
:100A100003353FF4FDAE1046194622E750EA410681
:100A200018BF52EA43067FF4C5AE50EA41047FF492
:100A30000DAF52EA43057FF4EBAE12E74FF0FF3CF7
:100A400006E000BF4FF0010C02E000BF4FF0010CC8
:100A50004DF804CD4FEA410C7FEA6C5C4FEA430C41
:100A600018BF7FEA6C5C1BD001B050EA410C0CBF90
:100A700052EA430C91EA030F02BF90EA020F0020F2
:100A8000704710F1000F91EA030F58BF994208BF59
:100A900090422CBFD8176FEAE37040F00100704716
:100AA0004FEA410C7FEA6C5C02D150EA013C07D16D
:100AB0004FEA430C7FEA6C5CD6D152EA033CD3D0B8
:100AC0005DF8040B704700BF8446104662468C46B2
:100AD0001946634600E000BF01B5FFF7B7FF0028E5
:100AE00048BF10F1000F01BD4DF808EDFFF7F4FF0E
:100AF0000CBF012000205DF808FB00BF4DF808ED99
:100B0000FFF7EAFF34BF012000205DF808FB00BFBB
:100B10004DF808EDFFF7E0FF94BF012000205DF8DD
:100B200008FB00BF4DF808EDFFF7CEFF94BF012092
:100B300000205DF808FB00BF4DF808EDFFF7C4FF8B
:100B400034BF012000205DF808FB00BF4FEA410CD4
:100B50007FEA6C5C02D150EA013C0AD14FEA430CB7
:100B60007FEA6C5C02D152EA033C02D14FF00000F4
:100B700070474FF0010070474FEA410212F5001232
:100B800015D211D56FF47873B3EB625212D94FEAD4
:100B9000C12343F0004343EA505311F0004F23FABE
:100BA00002F018BF404270474FF00000704750EA13
:100BB000013005D111F0004008BF6FF000407047D0
:100BC0004FF00000704700BF4A0011D212F500122A
:100BD00011D20DD56FF47873B3EB62520ED44FEA95
:100BE000C12343F0004343EA505323FA02F0704715
:100BF0004FF00000704750EA013002D14FF0FF3053
:100C000070474FF00000704753B94AB9002908BF38
:100C100000281CBF4FF0FF314FF0FF3000F070B9DB
:100C2000ADF1080C6DE904CE00F006F8DDF804E043
:100C3000DDE9022304B070472DE9F047089E0D4618
:100C400004460F46002B4AD18A42944665D9B2FA2F
:100C500082F343B102FA03FCC3F120029F4020FA61
:100C600002F217439C404FEA1C4E1FFA8CF5B7FB6B
:100C7000FEF1220C0EFB117742EA074201FB05F060
:100C800090420AD91CEB020201F1FF3780F01C816F
:100C9000904240F2198102396244121AA4B2B2FBA6
:100CA000FEF00EFB102244EA024400FB05F5A542CB
:100CB0000AD91CEB040400F1FF3280F00781A54241
:100CC00040F204816444023840EA0140641B002180
:100CD0001EB1DC400023C6E90043BDE8F0878B422B
:100CE00008D9002E00F0ED800021C6E90005084675
:100CF000BDE8F087B3FA83F1002949D1AB4202D3B2
:100D0000824200F2F880841A65EB03020120174644
:100D1000002EE2D0C6E90047DFE702B9FFDEB2FAF3
:100D200082F3002B40F090808A1A4FEA1C471FFA8A
:100D30008CFE0121B2FBF7F507FB1520220C42EADD
:100D400000420EFB05F0904208D91CEB020205F1AF
:100D5000FF3802D2904200F2CB804546121AA4B26C
:100D6000B2FBF7F007FB102244EA02440EFB00FE40
:100D7000A64508D91CEB040400F1FF3202D2A645B7
:100D800000F2BB801046A4EB0E0440EA05409FE74A
:100D9000C1F120078B4022FA07FC4CEA030C05FA4C
:100DA00001F420FA07F3FD404FEA1C492343B5FB49
:100DB000F9F81FFA8CFE09FB18551C0C44EA05448F
:100DC00008FB0EF5A54202FA01F200FA01F00BD978
:100DD0001CEB040408F1FF3A80F08880A54240F241
:100DE0008580A8F102086444641B9DB2B4FBF9F34A
:100DF00009FB134445EA044403FB0EFEA64508D94B
:100E00001CEB040403F1FF356CD2A6456AD9023B02
:100E1000644443EA0843A3FB0295A4EB0E04AC42EE
:100E2000C846AE4656D353D056B1B0EB080264EB79
:100E30000E0404FA07F7CA40CC401743C6E9007411
:100E400018460021BDE8F087C3F1200102FA03FC37
:100E500020FA01F225FA01F19D402A434FEA1C478E
:100E60001FFA8CFEB1FBF7F007FB1015110C41EADD
:100E7000054100FB0EF58D4204FA03F408D91CEB82
:100E8000010100F1FF382FD28D422DD90238614483
:100E9000491B92B2B1FBF7F507FB151142EA01427B
:100EA00005FB0EF1914208D91CEB020205F1FF3857
:100EB00016D2914214D9023D6244521A45EA0041C9
:100EC00038E73146304608E73946E6E61046FBE6A5
:100ED0004845A9D2B9EB020865EB0C0E013BA3E72C
:100EE0004546EAE72B4694E74046D1E7D0467BE704
:100EF000023D624432E708460AE76444023842E7AA
:100F0000704700BF80B58EB000AF07F11C03002210
:100F10001A605A609A60DA601A615A619A613B46B7
:100F200000221A605A609A60DA601A615A619A6106
:100F30002F4B4FF020421A602D4B2E4A5A602C4BFB
:100F400006229A602A4B0022DA60294B00221A619D
:100F5000274B10225A61264B00229A61244B002213
:100F6000DA61234B00221A62214B00225A62204B85
:100F70004FF480529A621E4B0022DA621C4B4FF4EF
:100F800080421A631A4B00225A63194B00229A635B
:100F9000174B00225A640223FB610F233B6210238C
:100FA0007B620023BB621023FB6211233B6300239F
:100FB0007B6304233B600F237B600923BB6000231A
:100FC000FB6010233B6111237B610023BB613A4628
:100FD00007F11C031946064808F01CF90346002BCC
:100FE00001D000F0B9FC00BF3837BD4680BD00BF5E
:100FF0002C3A0020040100A080B586B000AF3B1D54
:1010000000221A605A609A60DA601A612C4B1B68E1
:10101000002B51D12A4B01221A6000233B60294B3F
:101020009B6B284A43F001039363264B9B6B03F0B1
:1010300001033B603B684FF480537B600223BB603D
:101040000023FB6003233B610C237B613B1D19469E
:101050001D4807F02FF94FF680737B600223BB60B9
:101060000023FB6003233B610C237B613B1D19467E
:10107000164807F01FF94CF233737B600223BB6004
:101080000023FB6003233B610C237B613B1D19465E
:101090000F4807F00FF94FF480537B600223BB60C9
:1010A0000023FB6003233B610C237B613B1D19463E
:1010B000084807F0FFF800E000BF1837BD4680BDC4
:1010C0007C3A002000380240001402400010024028
:1010D000000C02400018024080B582B000AF78607A
:1010E000FFF78AFF00BF0837BD4680BD80B58EB0D0
:1010F00000AF07F1240300221A605A609A60DA6098
:101100001A6100233B62614B1B6B604A43F0100382
:1011100013635E4B1B6B03F010033B623B6A0023BF
:10112000FB615A4B1B6B594A43F004031363574B43
:101130001B6B03F00403FB61FB690023BB61534B92
:101140001B6B524A43F020031363504B1B6B03F09D
:101150002003BB61BB6900237B614C4B1B6B4B4A7B
:1011600043F080031363494B1B6B03F080037B61E7
:101170007B6900233B61454B1B6B444A43F00103F1
:101180001363424B1B6B03F001033B613B6900237C
:10119000FB603E4B1B6B3D4A43F0020313633B4B2A
:1011A0001B6B03F00203FB60FB680023BB60374B43
:1011B0001B6B364A43F008031363344B1B6B03F07D
:1011C0000803BB60BB6800237B60304B1B6B2F4A5E
:1011D00043F0400313632D4B1B6B03F040037B6014
:1011E0007B6800224FF4E061294807F017FA0022DB
:1011F0004FF40041274807F011FA1C237B620023BB
:10120000BB620123FB6207F124031946224807F061
:1012100051F84FF480737B620123BB620223FB62AF
:1012200002233B6307F124031946194807F042F8EB
:101230004FF4C0637B620123BB620023FB62002387
:101240003B6307F124031946114807F033F80123E3
:101250007B620023BB620223FB6207F12403194671
:101260000E4807F027F84FF400437B620123BB626E
:101270000023FB6200233B6307F124031946054862
:1012800007F018F800BF3837BD4680BD003802406F
:10129000001402400004024000100240000002401E
:1012A00080B500AF124B134A1A60114B124A5A60B4
:1012B0000F4B00229A600E4B0022DA600C4B4FF469
:1012C00080421A610A4B00225A61094B00229A613E
:1012D000074B0022DA61064B00221A62044807F02D
:1012E000D1F90346002B01D000F036FB00BF80BDD2
:1012F000803A002000540040A086010080B58AB0EA
:1013000000AF786007F1140300221A605A609A60F7
:10131000DA601A617B681B68194A93422BD100235B
:101320003B61184B1B6B174A43F002031363154BC9
:101330001B6B03F002033B613B69C0237B611223FB
:10134000BB610023FB6103233B6204237B6207F143
:10135000140319460C4806F0ADFF0023FB60094B4F
:101360001B6C084A43F400131364064B1B6C03F414
:101370000013FB60FB6800BF2837BD4680BD00BF7F
:1013800000540040003802400004024080B48BB09A
:1013900000AFF860B9607A603B60FB68542202FBE2
:1013A00003F32E4A82FB03121A44D211DB17D31A1D
:1013B000FB61BB68A3F1F0021346DB009B1A9B00A4
:1013C000274A82FB03125211DB17D31ABB61FB6958
:1013D000002B3CDBFB69532B39DCBB69002B36DB74
:1013E000BB691B2B33DC00237B622BE000233B62B9
:1013F00021E0FA697B6A13447B61BA693B6A134452
:101400003B617B69002B13DB7B69532B10DC3B6951
:10141000002B0DDB3B691B2B0ADC3B69542203FBD1
:1014200002F27B6913441A467B68134401221A7046
:101430003B6A01333B623A683B6A9A42D9DA7B6A7B
:1014400001337B627A6A3B689A42CFDB00E000BFDF
:101450002C37BD465DF8047B704700BF89888888BB
:101460006766666680B584B004AF4FF6FF7004F01F
:10147000C9FB094B1B88183B98B21F230293074BEB
:101480000193102300931023C822002104F068FE6A
:1014900000BFBD4680BD00BF84440020F8C90008DD
:1014A00080B58CB002AF786000237B6178233B610C
:1014B0005423FB601C23BB601F230093782354221A
:1014C0007821002004F00AFC1F2300939423542267
:1014D0009421002004F002FC1F2300939423542243
:1014E0007821542004F0FAFB00237B6229E00023DA
:1014F0003B621FE07B6AFA6803FB02F23B6A13441B
:101500001A467B6813441B78012B10D17B699AB271
:101510003B6A9BB2134498B23B699AB27B6A9BB216
:1015200013449BB24FF47842194604F0EBF83B6A3F
:1015300001333B623A6AFB689A42DBDB7B6A013328
:101540007B627A6ABB689A42D1DB0023FB6118E0B8
:10155000174AFB6952F82330002B0FD0144AFB695D
:1015600052F8233098B2124AFB6952F823309AB2EB
:101570001F2300939423782104F0B0FBFB6901330F
:10158000FB61FB69082BE3DD0023BB6107E0084A30
:10159000BB69002142F82310BB690133BB61BB6901
:1015A000082BF4DD00BF00BF2837BD4680BD00BF5B
:1015B0000844002080B58EB004AF002387F82730A0
:1015C000002001F0C9FB0346FB77754B5B680020E8
:1015D00098474FF478430293724B01931023009382
:1015E0001023C8220021002004F0BAFD4FF47843F4
:1015F00002936D4B0193102300931023C8221421F2
:10160000002004F0ADFD0023F0225021002004F062
:10161000EBFB0023B4222821002004F0E5FB00238B
:1016200000935023B4220021B42004F057FB002380
:101630000093F023F022F021002004F04FFB1F2341
:1016400002935A4B0193102300931023C822DC21EC
:10165000002004F085FD524B9B8E1BB2002B77DAE5
:101660004F4B9A89524B1B889A4271D24C4B1A8C21
:101670004F4B5B889A426BD24D4B1B883B3B484A91
:101680009289934215DC464B1B8C4F2B11D8FFF7E8
:10169000E9FE00233B6207E0464A3B6A134400220E
:1016A0001A703B6A01333B623B6AB3F5136FF3DB9D
:1016B0004EE03B4B1B8CF02B13D9394B9B89384A9E
:1016C000118C4FF47842184605F0C4FEB861344BD3
:1016D0009B891846324B1B8C19460123354AFFF76C
:1016E00055FE2F4B9B89772B32D82D4B1B8C4F2BC4
:1016F0002ED83B1D304A19462E4800F013FD4FF4FA
:10170000784302933B1D0193102300931023C822BA
:101710002821002004F024FD1F230293274B01936E
:10172000102300931023C8225021002004F018FD3C
:101730004FF4784302933B1D019310230093102331
:10174000C822A021002004F00BFD1A48FFF7A8FED4
:10175000FB7F012B09D14FF6FF7004F053FA06F01E
:1017600063F805F05FFFFFF77DFE97F82730013340
:1017700087F8273097F82720114B83FB0213D911E4
:10178000D317CB1A4FF4FA6101FB03F3D31A002BE2
:101790007FF416AF4FF400710A4806F058FF0FE7C8
:1017A000F8370020FCC9000808CA000810CA000861
:1017B00084440020D83A0020084400201CCA0008B5
:1017C000D34D62100014024080B586B004AF06F01D
:1017D00087FB00F057F8FFF789FCFFF793FBFFF753
:1017E0005FFD04F095F801F039FA214B1B6898472A
:1017F000204B00221A6000237B6007E01E4A7B68B2
:10180000134400221A707B6801337B607B68B3F558
:10181000136FF3DB164B93F84430FF2B0CD04FF4CF
:1018200078430293154B0193102300931023C82291
:101830006E211E2004F094FC40F2DC5008F0BEF94A
:10184000FFF710FE0A4B93F844305BB2002B01DB2C
:10185000FFF7B0FE4FF478430293094B019318232E
:1018600000931E23F02200211E2004F079FCF1E7F2
:10187000F8370020D43A0020D83A00202CCA0008BB
:1018800044CA000880B594B000AF07F120033022AD
:101890000021184609F05BF807F10C0300221A60DA
:1018A0005A609A60DA601A610023BB60284B1B6C97
:1018B000274A43F080531364254B1B6C03F080537D
:1018C000BB60BB6800237B60224B1B68214A43F44A
:1018D000804313601F4B1B6803F480437B607B686D
:1018E00001233B624FF480337B620223BB634FF4DE
:1018F0008003FB6304233B64A8237B640223BB6453
:101900000423FB6407F12003184606F0FFFF03469B
:10191000002B01D000F020F80F23FB6002233B6175
:1019200000237B614FF4A053BB614FF48053FB61F4
:1019300007F10C030521184607F060FA0346002B57
:1019400001D000F009F800BF5037BD4680BD00BF90
:10195000003802400070004080B400AF72B600BF93
:10196000FEE780B485B000AF786039600023FB608B
:101970001AE0FB689B007A681344D3ED007AF5EE19
:10198000C07AF1EE10FA05DDFB689B007A6813441B
:101990001B6801E04FF00003FA68920079680A447E
:1019A0001360FB680133FB60FA683B689A42E0DB36
:1019B00000BF00BF1437BD465DF8047B704780B49C
:1019C00093B000AFF860B9607A603B60BA6D3B6E6F
:1019D000D21ABB6E5B001A447B6E92FBF3F30133A9
:1019E000FB61FA6D3B6ED21ABB6E5B001A447B6ED4
:1019F00092FBF3F30133BB6100237B641EE0002301
:101A00003B6411E07B6CFA6902FB03F3BA6903FBE8
:101A100002F23B6C13449B003A6813444FF00002FF
:101A20001A603B6C01333B64FB69BA6902FB03F348
:101A30003A6C9A42E6DB7B6C01337B647A6C7B6D9B
:101A40009A42DCDB0023FB63EEE00023BB63B2E0E1
:101A500000237B63A7E000233B639CE04FF000037F
:101A6000FB620023BB6265E000237B625BE07B6B73
:101A70007A6E03FB02F2BB6A1A44BB6ED31A7B6117
:101A80003B6B7A6E03FB02F27B6A1A44BB6ED31A7D
:101A90003B617B69002B43DB7A69BB6D9A423FDA7D
:101AA0003B69002B3CDB3A69FB6D9A4238DABB6B31
:101AB000BA6D02FB03F3FA6D03FB02F27B69F96D69
:101AC00001FB03F31A443B6913449B00FA68134477
:101AD00093ED007AFB6B3A6D02FB03F33A6E02FB67
:101AE00003F33A6E03FB02F2BB6B396E01FB03F3A7
:101AF000396E01FB03F31A44BB6A396E01FB03F331
:101B00001A447B6A13449B00BA681344D3ED007AED
:101B100067EE277A97ED0B7A77EE277AC7ED0B7A87
:101B20007B6A01337B627A6A3B6E9A429FDBBB6AB7
:101B30000133BB62BA6A3B6E9A4295DBFB6BFA6972
:101B400002FB03F3BA6903FB02F27B6BB96901FB89
:101B500003F31A443B6B13449B003A68134493ED20
:101B6000007AFB6BFA6902FB03F3BA6903FB02F22A
:101B70007B6BB96901FB03F31A443B6B13449B0075
:101B80003A681344D7ED0B7A77EE277AC3ED007AE3
:101B90003B6B01333B633A6BBB699A42FFF65EAF26
:101BA0007B6B01337B637A6BFB699A42FFF653AF21
:101BB000BB6B0133BB63BA6B3B6D9A42FFF648AF18
:101BC00000233B6226E0FB6BFA6902FB03F3BA6970
:101BD00003FB02F23B6A13449B003A68134493ED03
:101BE000007AFB6B9B007A681344D3ED007AFB6BA1
:101BF000FA6902FB03F3BA6903FB02F23B6A13447E
:101C00009B003A68134477EE277AC3ED007A3B6A6B
:101C100001333B62FB69BA6902FB03F33A6A9A42F9
:101C2000D1DBFB6B0133FB63FA6B7B6D9A42FFF6F2
:101C30000CAF00BF00BF4C37BD465DF8047B70475A
:101C400080B48FB000AFF860B9607A603B603A68EA
:101C50007B6CD21ABB6C92FBF3F30133FB613A6CE1
:101C60007B6CD21ABB6C92FBF3F30133BB61002394
:101C70007B6384E000233B637AE00023FB6270E037
:101C8000454BBB6200237B6251E000233B6247E08F
:101C90003B6BBA6C02FB03F37A6A13447B61FB6A09
:101CA000BA6C02FB03F33A6A13443B617A693B68FE
:101CB0009A4232DA3A693B6C9A422EDA7B6B3A6886
:101CC00002FB03F33A6C03FB02F27B69396C01FB04
:101CD00003F31A443B6913449B00FA681344D3EDA1
:101CE000007A97ED0A7AB4EEE77AF1EE10FA01DDA8
:101CF000BB6A11E07B6B3A6802FB03F33A6C03FBAF
:101D000002F27B69396C01FB03F31A443B6913440B
:101D10009B00FA6813441B68BB623B6A01333B6259
:101D20003A6A7B6C9A42B3DB7B6A01337B627A6AE4
:101D30007B6C9A42A9DB7B6BFA6902FB03F3BA69FD
:101D400003FB02F23B6BB96901FB03F31A44FB6A24
:101D500013449B00BA681344BA6A1A60FB6A0133E1
:101D6000FB62FA6ABB699A428ADB3B6B01333B63D5
:101D70003A6BFB699A4280DB7B6B01337B637A6B46
:101D80007B689A42FFF676AF00BF00BF3C37BD4686
:101D90005DF8047B704700BF000080FF80B487B00F
:101DA00000AFF860B9607A603B6000237B6148E077
:101DB0007B699B003A6813444FF000021A600023CD
:101DC0003B6123E07B699B003A68134493ED007A02
:101DD0003B699B00FA681344D3ED006A7B693A6A59
:101DE00003FB02F23B6913449B00BA681344D3ED32
:101DF000007A66EEA77A7B699B003A68134477EE17
:101E0000277AC3ED007A3B6901333B613A693B6A4B
:101E10009A42D7DB7B699B003A68134493ED007AC2
:101E20007B699B007A681344D3ED007A7B699B0041
:101E30003A68134477EE277AC3ED007A7B69013361
:101E40007B617A697B6A9A42B2DB00BF00BF1C37B4
:101E5000BD465DF8047B704780B590B008AF7860F0
:101E600039604FF4445007F02BFF0346FB614FF4F9
:101E7000446007F025FF0346BB610123069301235D
:101E80000593032304931C2303931C23029304232D
:101E9000019301230093FB693B4A3C497868FFF7B3
:101EA0008EFD4FF44461F869FFF75BFD0223029356
:101EB000022301931C2300931C230422B969F869AF
:101EC000FFF7BEFEF86907F003FF4FF4446007F028
:101ED000F7FE03467B610123069301230593032349
:101EE00004930E2303930E230293042301930423EC
:101EF00000937B69264A2749B869FFF760FD4FF4D4
:101F000044717869FFF72DFD4FF4447007F0D8FE57
:101F100003463B6102230293022301930E230093A5
:101F20000E23042239697869FFF78AFEB86907F041
:101F3000CFFE786907F0CCFE402007F0C1FE0346D3
:101F4000FB6010230193C4230093FB68124A1349DA
:101F50003869FFF723FF1021F868FFF702FD3869A1
:101F600007F0B6FE0E230193102300933B680C4A42
:101F70000C49F868FFF712FFF86807F0A9FE00BFE8
:101F80002037BD4680BD00BF90000020000000202B
:101F9000E0020020A0000020F0330020F00200202A
:101FA000B03700203034002080B590B000AFF8602A
:101FB000B9607A603B604FF444620021786808F0B1
:101FC000C6FC4FF0FF33FB63BB68BB631EE000231E
:101FD0007B6311E07B6B542203FB02F2BB6B134467
:101FE0001A46FB6813441B78002B02D0BB6BFB63C3
:101FF00005E07B6B01337B637B6B1B2BEADDFB6BAB
:10200000B3F1FF3F06D1BB6B0133BB63BB6B532BFB
:10201000DDDD00E000BFFB6BB3F1FF3F04D13B68A7
:1020200054221A60002379E0FB6B3B63FB6BFB627D
:1020300021E00023BB6200237B6211E07B6A542213
:1020400003FB02F2FB6A13441A46FB6813441B7835
:10205000002B02D00123BB6205E07B6A01337B6267
:102060007B6A1B2BEADDBB6A002B08D0FB6A3B6353
:10207000FB6A0133FB62FB6A532BDADD00E000BF31
:102080003A6BFB6BD31A0133BB61BB69C3F11C0311
:10209000DA0F13445B107B61BB69C3F11C027B69DF
:1020A000D31A3B6100233B6230E0FB6BFB6121E014
:1020B0003B6A542203FB02F2FB6913441A46FB6895
:1020C000134418783A6A1346DB009B1A1B011A4620
:1020D0007B681A44F969FB6BC91A7B690B4407EEEC
:1020E000900AF8EE677A9B001344C3ED007AFB690F
:1020F0000133FB61FA693B6B9A4204DCFA69FB6BC2
:10210000D31A1B2BD4DD3B6A01333B623B6A1B2B8A
:10211000CBDD3B6B5A1C3B681A60012318464037E5
:10212000BD4680BD80B5ADF54D6D04AF07F54C6380
:10213000A3F6B443186007F54C63A3F6B8431960DF
:1021400007F54C63A3F6BC431A6007F54C63A3F68E
:102150006C4300221A600023C7F8BC3C07F54C63AF
:10216000A3F54B6300221A60043300221A609A80A0
:102170000023C7F8B43C0023C7F8B03C0023C7F8DD
:10218000AC3C002387F8AB3C0023C7F8A43C1F23DA
:102190000293C64B0193102300931023C82264219D
:1021A000782003F0DDFF3AE107F1540307F158020C
:1021B00007F54C61A1F6B440D7F8BC1C0068FFF7E6
:1021C000F3FEC7F8980CD7F8A43C9B0007F54C62C7
:1021D000A2F6BC421268134407F54C62A2F66C42A8
:1021E00012681A60D7F8A43C0133C7F8A43CD7F8AA
:1021F000983C002B0CD11F230293AD4B019310236D
:1022000000931023C8226421782003F0A9FF0BE17A
:1022100007F11C0207F1580311461846FFF71CFE90
:102220001F230293A34B0193102300931023C82272
:102230007821782003F094FF07F54C63A3F6A443BC
:102240001B6807F54A6213600023C7F8B83C0123F6
:10225000C7F89C3C27E007F54C63A3F6A442D7F8E7
:102260009C3C9B001344D3ED007A07F54A6393ED41
:10227000007AB4EEE77AF1EE10FA0FD507F54C6369
:10228000A3F6A442D7F89C3C9B0013441B6807F5B7
:102290004A621360D7F89C3CC7F8B83CD7F89C3C1E
:1022A0000133C7F89C3CD7F89C3C0D2BD3DDD7F805
:1022B000B83C002B1FDBD7F8B83C092B1BDCD7F848
:1022C000AC2C13469B0013445B001A46D7F8B83C6D
:1022D0001344C7F8AC3CD7F8B83CDAB2D7F8B43CF2
:1022E000591CC7F8B41C3032D1B207F54C62A2F5C4
:1022F0004B62D1548CE0D7F8B83C092B40F388806E
:10230000D7F8B83C0D2B00F3838097F8AB3C002B3B
:1023100004D1D7F8AC3CC7F8B03C31E097F8AB3CFF
:102320000A3B032B2CD801A252F823F03D230008CE
:102330004D2300085D2300086F230008D7F8B02C58
:10234000D7F8AC3C1344C7F8B03C19E0D7F8B02C30
:10235000D7F8AC3CD31AC7F8B03C11E0D7F8B03C82
:10236000D7F8AC2C02FB03F3C7F8B03C08E0D7F871
:10237000B02CD7F8AC3C92FBF3F3C7F8B03C00BFED
:10238000D7F8B83C87F8AB3C0023C7F8AC3CD7F88B
:10239000B83C0A3B032B3BD801A252F823F000BF04
:1023A000B1230008C9230008E1230008F92300082D
:1023B000D7F8B43C5A1CC7F8B42C07F54C62A2F508
:1023C0004B622B21D15423E0D7F8B43C5A1CC7F8F8
:1023D000B42C07F54C62A2F54B622D21D15417E0C5
:1023E000D7F8B43C5A1CC7F8B42C07F54C62A2F5D8
:1023F0004B627821D1540BE0D7F8B43C5A1CC7F893
:10240000B42C07F54C62A2F54B622F21D15400BFCA
:1024100007F54C63A3F66C431B68C7F8BC3CD7F8C0
:10242000BC3C532B7FF7C0AE1F230293224B01937A
:10243000102300931023C8228C21782003F090FEF3
:1024400097F8AB3C002B39D097F8AB3C0A3B032BF9
:1024500038D801A252F823F0692400087924000832
:10246000892400089B240008D7F8B02CD7F8AC3C8E
:102470001344C7F8B03C25E0D7F8B02CD7F8AC3CF3
:10248000D31AC7F8B03C1DE0D7F8B03CD7F8AC2C55
:1024900002FB03F3C7F8B03C14E0D7F8B02CD7F830
:1024A000AC3C92FBF3F3C7F8B03C0BE04CCA00081D
:1024B00060CA00086CCA000880CA0008D7F8AC3CA3
:1024C000C7F8B03C07F54C63A3F54B62D7F8B43CB2
:1024D000134400221A701F2302931F4B01931023F1
:1024E00000931023C8226421782003F039FE1F23B3
:1024F0000293194B0193102300931023C8227821D3
:10250000782003F02DFE1F230293134B0193102319
:1025100000931023C8228C21782003F021FE1F2372
:1025200002930E4B0193102300931023C822A02185
:10253000782003F015FE07F1100207F54C63A3F6AF
:10254000B840D7F8B03C0649006808F09DF900BFD4
:1025500007F54C67BD4680BD8CCA0008A0CA0008BC
:10256000ACCA000880B483B000AF00237B60104B7E
:102570005B6C0F4A43F4804353640D4B5B6C03F474
:1025800080437B607B6800233B60094B1B6C084ADF
:1025900043F080531364064B1B6C03F080533B6085
:1025A0003B6800BF0C37BD465DF8047B704700BF39
:1025B0000038024080B400AFFEE780B400AFFEE711
:1025C00080B400AFFEE780B400AFFEE780B400AF98
:1025D000FEE780B400AF00BFBD465DF8047B7047E6
:1025E00080B400AF00BFBD465DF8047B704780B487
:1025F00000AF00BFBD465DF8047B704780B500AFFB
:1026000005F0C0FC00BF80BD80B400AF01231846B8
:10261000BD465DF8047B704780B582B000AF78603E
:10262000396008F0F7F9034616221A604FF0FF33BD
:1026300018460837BD4680BD80B582B000AF7860CF
:102640004FF0FF317868FFF7E7FFFEE780B586B00F
:1026500000AFF860B9607A6000237B610AE0AFF3F5
:1026600000800146BB685A1CBA60CAB21A707B6906
:1026700001337B617A697B689A42F0DB7B6818469C
:102680001837BD4680BD80B586B000AFF860B96030
:102690007A6000237B6109E0BB685A1CBA601B7832
:1026A0001846AFF300807B6901337B617A697B68F0
:1026B0009A42F1DB7B6818461837BD4680BD80B46E
:1026C00083B000AF78604FF0FF3318460C37BD463B
:1026D0005DF8047B704780B483B000AF78603960E8
:1026E0003B684FF400525A60002318460C37BD4631
:1026F0005DF8047B704780B483B000AF786001233D
:1027000018460C37BD465DF8047B704780B485B031
:1027100000AFF860B9607A60002318461437BD46F0
:102720005DF8047B7047000080B586B000AF78602C
:10273000144A154BD31A7B617B693B61134B1B68B1
:10274000002B02D1114B124A1A60104B1A687B6899
:1027500013443A699A4207D208F05CF903460C2206
:102760001A604FF0FF3309E0084B1B68FB60074B12
:102770001A687B681344054A1360FB6818461837CB
:10278000BD4680BD0000022000040000304400204F
:102790000047002080B400AF064BD3F88830054ACC
:1027A00043F47003C2F8883000BFBD465DF8047B77
:1027B000704700BF00ED00E0DFF834D00D480E494F
:1027C0000E4A002302E0D458C4500433C4188C428B
:1027D000F9D30B4A0B4C002301E013600432A242F0
:1027E000FBD3FFF7D7FF08F01BF9FEF7EDFF7047AB
:1027F0000000022000000020103A0020DCFE00084B
:10280000103A0020FC460020FEE780B500AF00F043
:102810009DF800BF80BD80B584B000AF0346FB804B
:102820000023FB7300F0DEF8FB881B0A9BB2DBB2CF
:102830005B00DBB2603BDBB2184600F093F900F0BE
:1028400013F9FB88DBB2184600F08CF900F00CF9A4
:1028500000F0C8F8A12000F085F900F005F900208B
:1028600000F0BEF90346FB7300F0E0F8FB7B18466E
:102870001037BD4680BD80B582B000AF03460A4622
:10288000FB8013467B7100F0ADF8FB881B0A9BB2FE
:10289000DBB25B00DBB2603BDBB2184600F062F9F2
:1028A00000F0E2F8FB88DBB2184600F05BF900F0BC
:1028B000DBF87B79184600F055F900F0D5F800F008
:1028C000B5F80A2007F07AF900BF0837BD4680BD89
:1028D00090B583B000AF03463960FB801346BB80E0
:1028E0000AE0FB885A1CFA803C68621C3A60184671
:1028F000FFF791FF03462370BB885A1EBA80002B56
:10290000EFD100BF00BF0C37BD4690BD80B582B08F
:1029100000AF03463960FB801346BB800CE03B6888
:102920001A78FB8811461846FFF7A5FFFB8801338C
:10293000FB803B6801333B60BB885A1EBA80002B8A
:10294000EDD100BF00BF0837BD4680BD80B588B05F
:1029500000AF0023BB601D4B1B6B1C4A43F00203FE
:1029600013631A4B1B6B03F00203BB60BB680023AD
:102970007B60164B1B6B154A43F002031363134B2A
:102980001B6B03F002037B607B684FF48073FB607A
:1029900001233B6101237B610323BB6107F10C032E
:1029A00019460B4805F086FC4FF40073FB601123B9
:1029B0003B6107F10C031946054805F07BFC00F06C
:1029C00035F800BF2037BD4680BD00BF003802404B
:1029D0000004024080B500AF022007F0B1F800BF4C
:1029E00080BD000080B500AF01224FF400710E4899
:1029F00005F014FE01224FF480710B4805F00EFE25
:102A0000FFF7E8FF00224FF40071074805F006FECB
:102A1000FFF7E0FF00224FF48071034805F0FEFD50
:102A2000FFF7D8FF00BF80BD0004024080B500AFB3
:102A300000224FF400710B4805F0F0FDFFF7CAFFCC
:102A400001224FF48071074805F0E8FDFFF7C2FF4F
:102A500001224FF40071034805F0E0FDFFF7BAFFD3
:102A600000BF80BD0004024080B582B000AF0023EB
:102A7000FB710023BB7101224FF40071164805F071
:102A8000CDFDFFF7A7FF01224FF48071124805F03A
:102A9000C5FDFFF79FFF0AE0FB790133FB71FB796E
:102AA000FA2B04D9FFF7C2FF0123BB7107E04FF4F3
:102AB0000071094805F09AFD0346002BECD1002275
:102AC0004FF48071044805F0A9FDFFF783FFBB793F
:102AD00018460837BD4680BD0004024080B500AFEF
:102AE00000224FF400710F4805F098FDFFF772FFC8
:102AF00001224FF480710B4805F090FDFFF76AFF4B
:102B000000224FF48071074805F088FDFFF762FF4F
:102B100001224FF40071034805F080FDFFF75AFFD2
:102B200000BF80BD0004024080B500AF01224FF419
:102B300000710B4805F072FDFFF74CFF01224FF4C6
:102B40008071074805F06AFDFFF744FF00224FF44B
:102B50008071034805F062FDFFF73CFF00BF80BDB8
:102B60000004024080B584B000AF0346FB7100232F
:102B7000FB7326E097F90730002B06DA01224FF4A9
:102B80000071164805F04AFD05E000224FF400717F
:102B9000124805F043FDFFF71DFF01224FF480713D
:102BA0000E4805F03BFDFFF715FF00224FF4807142
:102BB0000A4805F033FDFB795B00FB71FB7B0133B9
:102BC000FB73FB7B072BD5D901224FF4007103481F
:102BD00005F024FD00BF1037BD4680BD0004024053
:102BE00080B584B000AF0346FB710023BB730023A4
:102BF000FB7320E0BB7B5B00BB7301224FF4807151
:102C0000154805F00BFDFFF7E5FE4FF40071124883
:102C100005F0ECFC0346002B02D0BB7B0133BB73F9
:102C200000224FF480710C4805F0F8FCFFF7D2FE4B
:102C3000FB7B0133FB73FB7B072BDBD9FB79002B81
:102C400002D1FFF771FF01E0FFF748FFBB7B184699
:102C50001037BD4680BD00BF0004024080B58AB079
:102C600000AF00233B61394B1B6B384A43F0100324
:102C70001363364B1B6B03F010033B613B6900236E
:102C8000FB60324B1B6B314A43F0100313632F4B35
:102C90001B6B03F01003FB60FB680023BB602B4B36
:102CA0001B6B2A4A43F010031363284B1B6B03F082
:102CB0001003BB60BB6800237B60244B1B6B234A63
:102CC00043F001031363214B1B6B03F001037B6093
:102CD0007B6810237B610023BB610123FB6102231E
:102CE0003B6207F114031946194805F0E3FA08237B
:102CF0007B610023BB610123FB6102233B6207F17F
:102D000014031946124805F0D5FA04237B61002309
:102D1000BB610123FB6102233B6207F114031946E7
:102D20000B4805F0C7FA01237B610023BB61022336
:102D3000FB6102233B6207F114031946054805F0C5
:102D4000B9FA00BF2837BD4680BD00BF0038024039
:102D5000001002400000024080B584B000AF03467E
:102D6000FB710023FB73FB79002B02D0384B01224F
:102D70001A70374B1B78002B46D01021354805F0D0
:102D800035FC0346002B14D00821324805F02EFCF8
:102D90000346002B0DD004212E4805F027FC0346E6
:102DA000002B06D001212C4805F020FC0346012B06
:102DB0002AD10A2006F002FF254B00221A701021AA
:102DC000244805F013FC0346002B01D10123FB73BB
:102DD0000821204805F00AFC0346002B01D10223FC
:102DE000FB7304211B4805F001FC0346002B01D1B5
:102DF0000323FB730121184805F0F8FB0346012B60
:102E000021D10423FB731EE01021124805F0EEFBD4
:102E10000346012B17D108210E4805F0E7FB0346B6
:102E2000012B10D104210B4805F0E0FB0346012BD8
:102E300009D10121084805F0D9FB0346002B02D136
:102E4000034B01221A70FB7B18461037BD4680BD2C
:102E5000EC370020001002400000024080B500AFB7
:102E6000112002F0B1F9782006F0B9FE362002F008
:102E7000ABF9002002F094F93A2002F0A5F9052000
:102E800002F08EF9B22002F09FF90C2002F088F9CE
:102E90000C2002F085F9002002F082F9332002F0C4
:102EA0007FF9332002F07CF9B72002F08DF935204C
:102EB00002F076F9BB2002F087F9322002F070F9B7
:102EC000C02002F081F90C2002F06AF9C22002F061
:102ED0007BF9012002F064F9C32002F075F910209B
:102EE00002F05EF9C42002F06FF9202002F058F9D8
:102EF000C62002F069F90F2002F052F9D02002F04A
:102F000063F9A42002F04CF9A12002F049F9E02075
:102F100002F05AF9D02002F043F9002002F040F903
:102F2000022002F03DF9072002F03AF90A2002F0EF
:102F300037F9282002F034F9322002F031F9442028
:102F400002F02EF9422002F02BF9062002F028F9B7
:102F50000E2002F025F9122002F022F9142002F0CE
:102F60001FF9172002F01CF9E12002F02DF9D02002
:102F700002F016F9002002F013F9022002F010F915
:102F8000072002F00DF90A2002F00AF9282002F0C9
:102F900007F9312002F004F9542002F001F947202A
:102FA00002F0FEF80E2002F0FBF81C2002F0F8F808
:102FB000172002F0F5F81B2002F0F2F81E2002F0B4
:102FC000EFF82A2002F000F9002002F0E9F80020D2
:102FD00002F0E6F8002002F0E3F8EF2002F0E0F85B
:102FE0002B2002F0F1F8002002F0DAF8002002F0C5
:102FF000D7F8012002F0D4F83F2002F0D1F82920C0
:1030000002F0E2F800BF80BD80B500AFCF2002F033
:10301000DBF8002002F0C4F8C12002F0C1F8302033
:1030200002F0BEF8ED2002F0CFF8642002F0B8F80C
:10303000032002F0B5F8122002F0B2F8812002F06D
:10304000AFF8E82002F0C0F8852002F0A9F81020BF
:1030500002F0A6F87A2002F0A3F8CB2002F0B4F830
:10306000392002F09DF82C2002F09AF8002002F09E
:1030700097F8342002F094F8022002F091F8F7203B
:1030800002F0A2F8202002F08BF8EA2002F09CF86F
:10309000002002F085F8002002F082F8C02002F043
:1030A00093F81B2002F07CF8C12002F08DF801207B
:1030B00002F076F8C52002F087F8302002F070F8B0
:1030C000302002F06DF8C72002F07EF8B72002F041
:1030D00067F8362002F078F8482002F061F83A20CC
:1030E00002F072F8552002F05BF8B12002F06CF8A3
:1030F000002002F055F81A2002F052F8B62002F033
:1031000063F80A2002F04CF8A22002F049F8F220FD
:1031100002F05AF8002002F043F8262002F054F89A
:10312000012002F03DF8E02002F04EF80F2002F0FE
:1031300037F82A2002F034F8282002F031F808206D
:1031400002F02EF80E2002F02BF8082002F028F8EA
:10315000542002F025F8A92002F022F8432002F0C2
:103160001FF80A2002F01CF80F2002F019F80020C6
:1031700002F016F8002002F013F8002002F010F818
:10318000002002F00DF8E12002F01EF8002002F00D
:1031900007F8152002F004F8172002F001F80720C4
:1031A00001F0FEFF112001F0FBFF062001F0F8FF07
:1031B0002B2001F0F5FF562001F0F2FF3C2001F03A
:1031C000EFFF052001F0ECFF102001F0E9FF0F20D8
:1031D00001F0E6FF3F2001F0E3FF3F2001F0E0FFB8
:1031E0000F2001F0DDFF2B2001F0EEFF002001F0A9
:1031F000D7FF002001F0D4FF012001F0D1FF3F20D4
:1032000001F0CEFF2A2001F0DFFF002001F0C8FF0F
:10321000002001F0C5FF002001F0C2FFEF2001F007
:10322000BFFF112001F0D0FF782006F0D8FC292044
:1032300001F0CAFF00BF80BD80B500AFED2001F0F6
:10324000C3FF012001F0ACFFFE2001F0A9FFEE203A
:1032500001F0BAFFDE2001F0A3FF212001F0A0FF62
:10326000F12001F0B1FF012001F09AFFDF2001F011
:10327000ABFF102001F094FFC42001F0A5FF8F20C8
:1032800001F08EFFC62001F09FFF002001F088FFB3
:10329000E22001F085FFE22001F082FFE22001F050
:1032A0007FFFBF2001F090FFAA2001F079FFB0203E
:1032B00001F08AFF0D2001F073FF002001F070FF84
:1032C0000D2001F06DFF002001F06AFF112001F0D8
:1032D00067FF002001F064FF192001F061FF00206A
:1032E00001F05EFF212001F05BFF002001F058FF9C
:1032F0002D2001F055FF002001F052FF3D2001F08C
:103300004FFF002001F04CFF5D2001F049FF00203D
:1033100001F046FF5D2001F043FF002001F040FF77
:10332000B12001F051FF802001F03AFF002001F0B0
:1033300037FF8B2001F034FF002001F031FF962091
:1033400001F02EFF002001F02BFFB22001F03CFF26
:10335000002001F025FF002001F022FF022001F0F3
:103360001FFF002001F01CFF032001F019FF0020C7
:1033700001F016FFB32001F027FF002001F010FF3D
:10338000002001F00DFF002001F00AFF002001F0F5
:1033900007FF002001F004FF002001F001FF0020E2
:1033A00001F0FEFE002001F0FBFE002001F0F8FE1F
:1033B000002001F0F5FE002001F0F2FE002001F0F7
:1033C000EFFE002001F0ECFE002001F0E9FE0020FD
:1033D00001F0E6FE002001F0E3FE002001F0E0FE37
:1033E000002001F0DDFE002001F0DAFE002001F0F7
:1033F000D7FE002001F0D4FE002001F0D1FE002015
:1034000001F0CEFE002001F0CBFEB42001F0DCFE86
:103410008B2001F0C5FE002001F0C2FE962001F0D5
:10342000BFFE002001F0BCFEA12001F0B9FE00208B
:1034300001F0B6FEB52001F0C7FE022001F0B0FE9B
:10344000002001F0ADFE032001F0AAFE002001F0F3
:10345000A7FE042001F0A4FE002001F0A1FEB6208A
:1034600001F0B2FE002001F09BFE002001F098FE6A
:10347000B72001F0A9FE002001F092FE002001F02B
:103480008FFE3F2001F08CFE002001F089FE5E20BF
:1034900001F086FE002001F083FE642001F080FE32
:1034A000002001F07DFE8C2001F07AFE002001F06A
:1034B00077FEAC2001F074FE002001F071FEDC20EC
:1034C00001F06EFE002001F06BFE702001F068FE3E
:1034D000002001F065FE902001F062FE002001F066
:1034E0005FFEEB2001F05CFE002001F059FEDC20C5
:1034F00001F056FE002001F053FEB82001F064FEFA
:10350000002001F04DFE002001F04AFE002001F0F5
:1035100047FE002001F044FE002001F041FE0020A3
:1035200001F03EFE002001F03BFE002001F038FEDD
:10353000BA2001F049FE242001F032FE002001F003
:103540002FFE002001F02CFE002001F029FEC120FA
:1035500001F03AFE202001F023FE002001F020FEC1
:10356000542001F01DFE002001F01AFEFF2001F0A2
:1035700017FE002001F014FEC22001F025FE0A20F3
:1035800001F00EFE002001F00BFE042001F008FE09
:10359000002001F005FEC32001F016FE3C2001F0E2
:1035A000FFFD002001F0FCFD3A2001F0F9FD0020B4
:1035B00001F0F6FD392001F0F3FD002001F0F0FDEF
:1035C000372001F0EDFD002001F0EAFD3C2001F084
:1035D000E7FD002001F0E4FD362001F0E1FD0020D0
:1035E00001F0DEFD322001F0DBFD002001F0D8FD0E
:1035F0002F2001F0D5FD002001F0D2FD2C2001F09C
:10360000CFFD002001F0CCFD292001F0C9FD0020F4
:1036100001F0C6FD262001F0C3FD002001F0C0FD31
:10362000242001F0BDFD002001F0BAFD242001F0AE
:10363000B7FD002001F0B4FD232001F0B1FD002012
:1036400001F0AEFD3C2001F0ABFD002001F0A8FD33
:10365000362001F0A5FD002001F0A2FD322001F08E
:103660009FFD002001F09CFD2F2001F099FD00201E
:1036700001F096FD2C2001F093FD002001F090FD5B
:10368000292001F08DFD002001F08AFD262001F0A7
:1036900087FD002001F084FD242001F081FD002041
:1036A00001F07EFD242001F07BFD002001F078FD7B
:1036B000232001F075FD002001F072FDC42001F00F
:1036C00083FD622001F06CFD002001F069FD052002
:1036D00001F066FD002001F063FD842001F060FD33
:1036E000002001F05DFDF02001F05AFD002001F006
:1036F00057FD182001F054FD002001F051FDA420D9
:1037000001F04EFD002001F04BFD182001F048FDB6
:10371000002001F045FD502001F042FD002001F0A5
:103720003FFD0C2001F03CFD002001F039FD172089
:1037300001F036FD002001F033FD952001F030FD51
:10374000002001F02DFDF32001F02AFD002001F002
:1037500027FDE62001F024FD002001F021FDC52019
:1037600001F032FD322001F01BFD002001F018FDB8
:10377000442001F015FD002001F012FD652001F04C
:103780000FFD002001F00CFD762001F009FD002066
:1037900001F006FD882001F003FD002001F000FD8E
:1037A000C62001F011FD202001F0FAFC002001F0FC
:1037B000F7FC172001F0F4FC002001F0F1FC0120DF
:1037C00001F0EEFC002001F0EBFCC72001F0FCFC56
:1037D000002001F0E5FC002001F0E2FC002001F0F7
:1037E000DFFC002001F0DCFCC82001F0EDFC002033
:1037F00001F0D6FC002001F0D3FC002001F0D0FC49
:10380000002001F0CDFCC92001F0DEFC002001F019
:10381000C7FC002001F0C4FC002001F0C1FC002026
:1038200001F0BEFC002001F0BBFC002001F0B8FC60
:10383000002001F0B5FC002001F0B2FC002001F0F6
:10384000AFFC002001F0ACFC002001F0A9FC00203E
:1038500001F0A6FC002001F0A3FC002001F0A0FC78
:10386000002001F09DFC002001F09AFCE02001F016
:10387000ABFC162001F094FC002001F091FC1C2010
:1038800001F08EFC002001F08BFC212001F088FC6F
:10389000002001F085FC362001F082FC002001F0C0
:1038A0007FFC462001F07CFC002001F079FC5220D6
:1038B00001F076FC002001F073FC642001F070FC44
:1038C000002001F06DFC7A2001F06AFC002001F07C
:1038D00067FC8B2001F064FC002001F061FC992062
:1038E00001F05EFC002001F05BFCA82001F058FC18
:1038F000002001F055FCB92001F052FC002001F03D
:103900004FFCC42001F04CFC002001F049FCCA200F
:1039100001F046FC002001F043FCD22001F040FC05
:10392000002001F03DFCD92001F03AFC002001F01C
:1039300037FCE02001F034FC002001F031FCF320E2
:1039400001F02EFC002001F02BFCE12001F03CFCFA
:10395000162001F025FC002001F022FC1C2001F0C3
:103960001FFC002001F01CFC222001F019FC0020AB
:1039700001F016FC362001F013FC002001F010FCD1
:10398000452001F00DFC002001F00AFC522001F05E
:1039900007FC002001F004FC642001F001FC002081
:1039A00001F0FEFB7A2001F0FBFB002001F0F8FBA8
:1039B0008B2001F0F5FB002001F0F2FB992001F0D3
:1039C000EFFB002001F0ECFBA82001F0E9FB002058
:1039D00001F0E6FBB92001F0E3FB002001F0E0FB81
:1039E000C42001F0DDFB002001F0DAFBCA2001F069
:1039F000D7FB002001F0D4FBD22001F0D1FB002046
:103A000001F0CEFBD82001F0CBFB002001F0C8FB79
:103A1000E02001F0C5FB002001F0C2FBF32001F023
:103A2000BFFB002001F0BCFBE22001F0CDFB052034
:103A300001F0B6FB002001F0B3FB0B2001F0B0FB5E
:103A4000002001F0ADFB1B2001F0AAFB002001F0DB
:103A5000A7FB342001F0A4FB002001F0A1FB4420CF
:103A600001F09EFB002001F09BFB4F2001F098FB32
:103A7000002001F095FB612001F092FB002001F095
:103A80008FFB792001F08CFB002001F089FB88205E
:103A900001F086FB002001F083FB972001F080FB02
:103AA000002001F07DFBA62001F07AFB002001F050
:103AB00077FBB72001F074FB002001F071FBC220FE
:103AC00001F06EFB002001F06BFBC72001F068FBEA
:103AD000002001F065FBD12001F062FB002001F025
:103AE0005FFBD62001F05CFB002001F059FBDD20DC
:103AF00001F056FB002001F053FBF32001F050FBD6
:103B0000002001F04DFBE32001F05EFB052001F0F9
:103B100047FB002001F044FB0A2001F041FB00209C
:103B200001F03EFB1C2001F03BFB002001F038FBC4
:103B3000332001F035FB002001F032FB442001F07E
:103B40002FFB002001F02CFB502001F029FB00206E
:103B500001F026FB622001F023FB002001F020FB96
:103B6000782001F01DFB002001F01AFB882001F0F5
:103B700017FB002001F014FB972001F011FB00203F
:103B800001F00EFBA62001F00BFB002001F008FB6A
:103B9000B72001F005FB002001F002FBC22001F07C
:103BA000FFFA002001F0FCFAC72001F0F9FA00202A
:103BB00001F0F6FAD12001F0F3FA002001F0F0FA5A
:103BC000D52001F0EDFA002001F0EAFADD2001F045
:103BD000E7FA002001F0E4FAF32001F0E1FA002016
:103BE00001F0DEFAE42001F0EFFA012001F0D8FA4A
:103BF000002001F0D5FA012001F0D2FA002001F0F6
:103C0000CFFA022001F0CCFA002001F0C9FA2A20F4
:103C100001F0C6FA002001F0C3FA3C2001F0C0FA1E
:103C2000002001F0BDFA4B2001F0BAFA002001F0AB
:103C3000B7FA5D2001F0B4FA002001F0B1FA742067
:103C400001F0AEFA002001F0ABFA842001F0A8FAEE
:103C5000002001F0A5FA932001F0A2FA002001F063
:103C60009FFAA22001F09CFA002001F099FAB320FB
:103C700001F096FA002001F093FABE2001F090FACC
:103C8000002001F08DFAC42001F08AFA002001F032
:103C900087FACD2001F084FA002001F081FAD320C8
:103CA00001F07EFA002001F07BFADD2001F078FAC5
:103CB000002001F075FAF32001F072FA002001F003
:103CC0006FFAE52001F080FA002001F069FA002087
:103CD00001F066FA002001F063FA002001F060FABA
:103CE000022001F05DFA002001F05AFA292001F0CB
:103CF00057FA002001F054FA3C2001F051FA00205C
:103D000001F04EFA4B2001F04BFA002001F048FA86
:103D10005D2001F045FA002001F042FA742001F024
:103D20003FFA002001F03CFA842001F039FA00202B
:103D300001F036FA932001F033FA002001F030FA56
:103D4000A22001F02DFA002001F02AFAB32001F0A0
:103D500027FA002001F024FABE2001F021FA002009
:103D600001F01EFAC42001F01BFA002001F018FA3D
:103D7000CD2001F015FA002001F012FAD32001F055
:103D80000FFA002001F00CFADC2001F009FA002003
:103D900001F006FAF32001F003FA002001F000FA26
:103DA000E62001F011FA112001F0FAF9002001F0EB
:103DB000F7F9342001F0F4F9002001F0F1F9562070
:103DC00001F0EEF9002001F0EBF9762001F0E8F9BE
:103DD000002001F0E5F9772001F0E2F9002001F080
:103DE000DFF9662001F0DCF9002001F0D9F9882024
:103DF00001F0D6F9002001F0D3F9992001F0D0F9B3
:103E0000002001F0CDF9BB2001F0CAF9002001F03B
:103E1000C7F9992001F0C4F9002001F0C1F966202A
:103E200001F0BEF9002001F0BBF9552001F0B8F90E
:103E3000002001F0B5F9552001F0B2F9002001F0A1
:103E4000AFF9452001F0ACF9002001F0A9F94320B9
:103E500001F0A6F9002001F0A3F9442001F0A0F937
:103E6000002001F09DF9E72001F0AEF9322001F0C9
:103E700097F9002001F094F9552001F091F9002004
:103E800001F08EF9762001F08BF9002001F088F91D
:103E9000662001F085F9002001F082F9672001F029
:103EA0007FF9002001F07CF9672001F079F900200A
:103EB00001F076F9872001F073F9002001F070F924
:103EC000992001F06DF9002001F06AF9BB2001F0A2
:103ED00067F9002001F064F9992001F061F90020F0
:103EE00001F05EF9772001F05BF9002001F058F94C
:103EF000442001F055F9002001F052F9562001F05C
:103F00004FF9002001F04CF9232001F049F900207D
:103F100001F046F9332001F043F9002001F040F9A7
:103F2000452001F03DF9002001F03AF9E82001F0C8
:103F30004BF9002001F034F9002001F031F999200B
:103F400001F02EF9002001F02BF9872001F028F96B
:103F5000002001F025F9882001F022F9002001F06D
:103F60001FF9772001F01CF9002001F019F96620F3
:103F700001F016F9002001F013F9882001F010F982
:103F8000002001F00DF9AA2001F00AF9002001F04B
:103F900007F9BB2001F004F9002001F001F9992094
:103FA00001F0FEF8002001F0FBF8662001F0F8F8BF
:103FB000002001F0F5F8552001F0F2F8002001F0A2
:103FC000EFF8552001F0ECF8002001F0E9F844206A
:103FD00001F0E6F8002001F0E3F8442001F0E0F8F9
:103FE000002001F0DDF8552001F0DAF8002001F0A2
:103FF000D7F8E92001F0E8F8AA2001F0D1F8002074
:1040000001F0CEF8002001F0CBF8002001F0C8F854
:10401000002001F0D9F8AA2001F0C2F8CF2001F069
:10402000D3F8002001F0BCF8002001F0B9F800201E
:1040300001F0B6F8002001F0B3F8002001F0B0F86C
:10404000002001F0ADF8002001F0AAF8002001F0F6
:10405000A7F8002001F0A4F8002001F0A1F800204A
:1040600001F09EF8002001F09BF8002001F098F884
:10407000002001F095F8002001F092F8002001F0F6
:104080008FF8002001F08CF8F02001F09DF800205E
:1040900001F086F8502001F083F8002001F080F84C
:1040A000002001F07DF8002001F07AF8F32001F003
:1040B0008BF8002001F074F8F92001F085F8062053
:1040C00001F06EF8102001F06BF8292001F068F87B
:1040D000002001F065F83A2001F076F8552001F053
:1040E0005FF8112001F070F8642005F078FD2920B8
:1040F00001F06AF8352001F067F8002001F050F86F
:10410000512001F061F8FF2001F04AF8532001F03E
:104110005BF82C2001F044F8552001F055F882207E
:1041200001F03EF82C2001F04FF800BF80BD80B5B3
:1041300000AF55214FF4704001F05AF8AA214FF218
:10414000010001F055F852214FF2020001F050F841
:1041500008214FF2030001F04BF801214FF2040057
:1041600001F046F80D214FF4304001F041F80D21E7
:104170004BF2010001F03CF80D214BF2020001F07E
:1041800037F834214FF4364001F032F834214BF245
:10419000016001F02DF834214BF2026001F028F8A3
:1041A0000D214FF4314001F023F80D214BF20110A5
:1041B00001F01EF80D214BF2021001F019F8342124
:1041C0004FF4374001F014F834214BF2017001F044
:1041D0000FF834214BF2027001F00AF800214FF47D
:1041E000324001F005F800214BF2012001F000F807
:1041F00000214BF2022000F0FBFF24214FF4384055
:1042000000F0F6FF24214BF6010000F0F1FF24211D
:104210004BF6020000F0ECFF01214FF43F4000F0AC
:10422000E7FF0F214FF4334000F0E2FF0F214BF284
:10423000013000F0DDFF0F214BF2023000F0D8FF1B
:1042400034214FF4394000F0D3FF34214BF60110F4
:1042500000F0CEFF34214BF6021000F0C9FF082118
:104260004FF4354000F0C4FF08214BF2015000F03C
:10427000BFFF08214BF2025000F0BAFF03214FF4B8
:10428000424000F0B5FF24214FF43A4000F0B0FF67
:1042900024214BF6012000F0ABFF24214BF6022035
:1042A00000F0A6FF00214FF43C4000F0A1FF782170
:1042B0004BF6014000F09CFF00214BF6024000F05D
:1042C00097FF00214FF43D4000F092FF78214BF61C
:1042D000015000F08DFF00214BF6025000F088FFE6
:1042E00000214FF43E4000F083FF64214BF6016053
:1042F00000F07EFF00214FF4514000F079FF3321A0
:104300004DF2011000F074FF00214DF2021000F098
:104310006FFF34214DF2031000F06AFF00214DF2CF
:10432000041000F065FF3A214DF2051000F060FF27
:1043300000214DF2061000F05BFF4A214DF20710FC
:1043400000F056FF00214DF2081000F051FF5C21F3
:104350004DF2091000F04CFF00214DF20A1000F060
:1043600047FF81214DF20B1000F042FF00214DF27A
:104370000C1000F03DFFA6214DF20D1000F038FFAB
:1043800000214DF20E1000F033FFE5214DF20F1029
:1043900000F02EFF01214DF2101000F029FF132133
:1043A0004DF2111000F024FF01214DF2121000F027
:1043B0001FFF54214DF2131000F01AFF01214DF29E
:1043C000141000F015FF82214DF2151000F010FFBF
:1043D00001214DF2161000F00BFFCA214DF217100B
:1043E00000F006FF02214DF2181000F001FF00213D
:1043F0004DF2191000F0FCFE02214DF21A1000F0EF
:10440000F7FE01214DF21B1000F0F2FE02214DF2E9
:104410001C1000F0EDFE34214DF21D1000F0E8FEFE
:1044200002214DF21E1000F0E3FE67214DF21F1035
:1044300000F0DEFE02214DF2201000F0D9FE8421B2
:104440004DF2211000F0D4FE02214DF2221000F0B6
:10445000CFFEA4214DF2231000F0CAFE02214DF23E
:10446000241000F0C5FEB7214DF2251000F0C0FE6B
:1044700002214DF2261000F0BBFECF214DF2271095
:1044800000F0B6FE02214DF2281000F0B1FEDE2150
:104490004DF2291000F0ACFE02214DF22A1000F07E
:1044A000A7FEF2214DF22B1000F0A2FE02214DF2E8
:1044B0002C1000F09DFEFE214DF22D1000F098FE14
:1044C00003214DF22E1000F093FE10214DF22F101B
:1044D00000F08EFE03214DF2301000F089FE3321F2
:1044E0004DF2311000F084FE03214DF2321000F045
:1044F0007FFE6D214DF2331000F07AFE00214FF463
:10450000524000F075FE33214DF2012000F070FEA4
:1045100000214DF2022000F06BFE34214DF2032009
:1045200000F066FE00214DF2042000F061FE3A2109
:104530004DF2052000F05CFE00214DF2062000F057
:1045400057FE4A214DF2072000F052FE00214DF2A5
:10455000082000F04DFE5C214DF2092000F048FEDD
:1045600000214DF20A2000F043FE81214DF20B2084
:1045700000F03EFE00214DF20C2000F039FEA62195
:104580004DF20D2000F034FE00214DF20E2000F01F
:104590002FFEE5214DF20F2000F02AFE01214DF201
:1045A000102000F025FE13214DF2112000F020FE16
:1045B00001214DF2122000F01BFE54214DF2132078
:1045C00000F016FE01214DF2142000F011FE8221B0
:1045D0004DF2152000F00CFE01214DF2162000F0E6
:1045E00007FECA214DF2172000F002FE02214DF213
:1045F000182000F0FDFD00214DF2192000F0F8FD1B
:1046000002214DF21A2000F0F3FD01214DF21B2092
:1046100000F0EEFD02214DF21C2000F0E9FD3421F6
:104620004DF21D2000F0E4FD02214DF21E2000F0AD
:10463000DFFD67214DF21F2000F0DAFD02214DF26F
:10464000202000F0D5FD84214DF2212000F0D0FD86
:1046500002214DF2222000F0CBFDA4214DF22320B7
:1046600000F0C6FD02214DF2242000F0C1FDB7216B
:104670004DF2252000F0BCFD02214DF2262000F075
:10468000B7FDCF214DF2272000F0B2FD02214DF2FF
:10469000282000F0ADFDDE214DF2292000F0A8FD1C
:1046A00002214DF22A2000F0A3FDF2214DF22B2031
:1046B00000F09EFD02214DF22C2000F099FDFE211C
:1046C0004DF22D2000F094FD03214DF22E2000F03C
:1046D0008FFD10214DF22F2000F08AFD03214DF2B5
:1046E000302000F085FD33214DF2312000F080FDB7
:1046F00003214DF2322000F07BFD6D214DF233207D
:1047000000F076FD00214FF4534000F071FD33219D
:104710004DF2013000F06CFD00214DF2023000F04E
:1047200067FD34214DF2033000F062FD00214DF2AF
:10473000043000F05DFD3A214DF2053000F058FDE7
:1047400000214DF2063000F053FD4A214DF20730B2
:1047500000F04EFD00214DF2083000F049FD5C21D3
:104760004DF2093000F044FD00214DF20A3000F016
:104770003FFD81214DF20B3000F03AFD00214DF25A
:104780000C3000F035FDA6214DF20D3000F030FD6B
:1047900000214DF20E3000F02BFDE5214DF20F30DF
:1047A00000F026FD01214DF2103000F021FD132113
:1047B0004DF2113000F01CFD01214DF2123000F0DD
:1047C00017FD54214DF2133000F012FD01214DF27E
:1047D000143000F00DFD82214DF2153000F008FD7F
:1047E00001214DF2163000F003FDCA214DF21730C1
:1047F00000F0FEFC02214DF2183000F0F9FC00211F
:104800004DF2193000F0F4FC02214DF21A3000F0A4
:10481000EFFC01214DF21B3000F0EAFC02214DF2C9
:104820001C3000F0E5FC34214DF21D3000F0E0FCBE
:1048300002214DF21E3000F0DBFC67214DF21F30EB
:1048400000F0D6FC02214DF2203000F0D1FC842192
:104850004DF2213000F0CCFC02214DF2223000F06C
:10486000C7FCA4214DF2233000F0C2FC02214DF21E
:10487000243000F0BDFCB7214DF2253000F0B8FC2B
:1048800002214DF2263000F0B3FCCF214DF227304B
:1048900000F0AEFC02214DF2283000F0A9FCDE2130
:1048A0004DF2293000F0A4FC02214DF22A3000F034
:1048B0009FFCF2214DF22B3000F09AFC02214DF2C8
:1048C0002C3000F095FCFE214DF22D3000F090FCD4
:1048D00003214DF22E3000F08BFC10214DF22F30D1
:1048E00000F086FC03214DF2303000F081FC3321D2
:1048F0004DF2313000F07CFC03214DF2323000F0FB
:1049000077FC6D214DF2333000F072FC00214FF442
:10491000544000F06DFC33214DF2014000F068FC82
:1049200000214DF2024000F063FC34214DF20340BF
:1049300000F05EFC00214DF2044000F059FC3A21E9
:104940004DF2054000F054FC00214DF2064000F00D
:104950004FFC4A214DF2074000F04AFC00214DF285
:10496000084000F045FC5C214DF2094000F040FC9D
:1049700000214DF20A4000F03BFC81214DF20B403A
:1049800000F036FC00214DF20C4000F031FCA62175
:104990004DF20D4000F02CFC00214DF20E4000F0D5
:1049A00027FCE5214DF20F4000F022FC01214DF2E1
:1049B000104000F01DFC13214DF2114000F018FCD6
:1049C00001214DF2124000F013FC54214DF213402E
:1049D00000F00EFC01214DF2144000F009FC822190
:1049E0004DF2154000F004FC01214DF2164000F09C
:1049F000FFFBCA214DF2174000F0FAFB02214DF2F5
:104A0000184000F0F5FB00214DF2194000F0F0FBDA
:104A100002214DF21A4000F0EBFB01214DF21B4048
:104A200000F0E6FB02214DF21C4000F0E1FB3421D6
:104A30004DF21D4000F0DCFB02214DF21E4000F063
:104A4000D7FB67214DF21F4000F0D2FB02214DF24F
:104A5000204000F0CDFB84214DF2214000F0C8FB46
:104A600002214DF2224000F0C3FBA4214DF223406D
:104A700000F0BEFB02214DF2244000F0B9FBB7214B
:104A80004DF2254000F0B4FB02214DF2264000F02B
:104A9000AFFBCF214DF2274000F0AAFB02214DF2DF
:104AA000284000F0A5FBDE214DF2294000F0A0FBDC
:104AB00002214DF22A4000F09BFBF2214DF22B40E7
:104AC00000F096FB02214DF22C4000F091FBFE21FC
:104AD0004DF22D4000F08CFB03214DF22E4000F0F2
:104AE00087FB10214DF22F4000F082FB03214DF295
:104AF000304000F07DFB33214DF2314000F078FB77
:104B000003214DF2324000F073FB6D214DF2334032
:104B100000F06EFB00214FF4554000F069FB33219B
:104B20004DF2015000F064FB00214DF2025000F004
:104B30005FFB34214DF2035000F05AFB00214DF28F
:104B4000045000F055FB3A214DF2055000F050FBA7
:104B500000214DF2065000F04BFB4A214DF2075068
:104B600000F046FB00214DF2085000F041FB5C21B3
:104B70004DF2095000F03CFB00214DF20A5000F0CC
:104B800037FB81214DF20B5000F032FB00214DF23A
:104B90000C5000F02DFBA6214DF20D5000F028FB2B
:104BA00000214DF20E5000F023FBE5214DF20F5095
:104BB00000F01EFB01214DF2105000F019FB1321F3
:104BC0004DF2115000F014FB01214DF2125000F093
:104BD0000FFB54214DF2135000F00AFB01214DF25E
:104BE000145000F005FB82214DF2155000F000FB3F
:104BF00001214DF2165000F0FBFACA214DF2175078
:104C000000F0F6FA02214DF2185000F0F1FA0021FE
:104C10004DF2195000F0ECFA02214DF21A5000F05A
:104C2000E7FA01214DF21B5000F0E2FA02214DF2A9
:104C30001C5000F0DDFA34214DF21D5000F0D8FA7E
:104C400002214DF21E5000F0D3FA67214DF21F50A1
:104C500000F0CEFA02214DF2205000F0C9FA842172
:104C60004DF2215000F0C4FA02214DF2225000F022
:104C7000BFFAA4214DF2235000F0BAFA02214DF2FE
:104C8000245000F0B5FAB7214DF2255000F0B0FAEB
:104C900002214DF2265000F0ABFACF214DF2275001
:104CA00000F0A6FA02214DF2285000F0A1FADE2110
:104CB0004DF2295000F09CFA02214DF22A5000F0EA
:104CC00097FAF2214DF22B5000F092FA02214DF2A8
:104CD0002C5000F08DFAFE214DF22D5000F088FA94
:104CE00003214DF22E5000F083FA10214DF22F5087
:104CF00000F07EFA03214DF2305000F079FA3321B2
:104D00004DF2315000F074FA03214DF2325000F0B0
:104D10006FFA6D214DF2335000F06AFA00214FF422
:104D2000564000F065FA33214DF2016000F060FA60
:104D300000214DF2026000F05BFA34214DF2036075
:104D400000F056FA00214DF2046000F051FA3A21C9
:104D50004DF2056000F04CFA00214DF2066000F0C3
:104D600047FA4A214DF2076000F042FA00214DF265
:104D7000086000F03DFA5C214DF2096000F038FA5D
:104D800000214DF20A6000F033FA81214DF20B60F0
:104D900000F02EFA00214DF20C6000F029FAA62155
:104DA0004DF20D6000F024FA00214DF20E6000F08B
:104DB0001FFAE5214DF20F6000F01AFA01214DF2C1
:104DC000106000F015FA13214DF2116000F010FA96
:104DD00001214DF2126000F00BFA54214DF21360E4
:104DE00000F006FA01214DF2146000F001FA822170
:104DF0004DF2156000F0FCF901214DF2166000F053
:104E0000F7F9CA214DF2176000F0F2F902214DF2D4
:104E1000186000F0EDF900214DF2196000F0E8F99A
:104E200002214DF21A6000F0E3F901214DF21B60FE
:104E300000F0DEF902214DF21C6000F0D9F93421B6
:104E40004DF21D6000F0D4F902214DF21E6000F019
:104E5000CFF967214DF21F6000F0CAF902214DF22F
:104E6000206000F0C5F984214DF2216000F0C0F906
:104E700002214DF2226000F0BBF9A4214DF2236023
:104E800000F0B6F902214DF2246000F0B1F9B7212B
:104E90004DF2256000F0ACF902214DF2266000F0E1
:104EA000A7F9CF214DF2276000F0A2F902214DF2BF
:104EB000286000F09DF9DE214DF2296000F098F99C
:104EC00002214DF22A6000F093F9F2214DF22B609D
:104ED00000F08EF902214DF22C6000F089F9FE21DC
:104EE0004DF22D6000F084F903214DF22E6000F0A8
:104EF0007FF910214DF22F6000F07AF903214DF275
:104F0000306000F075F933214DF2316000F070F936
:104F100003214DF2326000F06BF96D214DF23360E8
:104F200000F066F955214FF4704000F061F9AA21B4
:104F30004FF2010000F05CF952214FF2020000F044
:104F400057F908214FF2030000F052F900214FF207
:104F5000040000F04DF9CC214FF4314000F048F945
:104F600000214BF2011000F043F905214FF43640C7
:104F700000F03EF970214FF4374000F039F970210C
:104F80004BF2017000F034F901214FF4384000F089
:104F90002FF903214BF6010000F02AF903214BF60B
:104FA000020000F025F903214BF6030000F020F980
:104FB00002214FF43C4000F01BF900214BF6014068
:104FC00000F016F900214BF6024000F011F9D02153
:104FD0004FF4494000F00CF902214CF6011000F0AA
:104FE00007F950214CF6021000F002F950214CF65E
:104FF000031000F0FDF850214CF6041000F0F8F812
:1050000000214FF4545000F0F3F855214FF468504C
:1050100000F0EEF84FF4885000F0D6F8012004F0CC
:10502000DEFD4FF4245000F0CFF800BF80BD80B506
:1050300000AFE22000F0C8F81D2000F0B1F8022017
:1050400000F0AEF8042000F0ABF8012004F0C7FD3A
:10505000E02000F0B9F8012000F0A2F80A2004F0E6
:10506000BEFDE02000F0B0F8032000F099F80C201D
:1050700004F0B5FD012000F0A7F80A2004F0AFFD10
:10508000E62000F0A1F82F2000F08AF8FF2000F0C1
:1050900087F8FF2000F084F8B02000F095F8202079
:1050A00000F07EF8002000F07BF8032000F078F894
:1050B00040F21F3000F074F8012000F071F840F267
:1050C000DF1000F06DF8002000F06AF8B42000F066
:1050D0007BF8042000F064F840F21F4000F060F814
:1050E000002000F05DF82E2000F05AF8002000F0BB
:1050F00057F8002000F054F8002000F051F800208C
:1051000000F04EF8B62000F05FF8022000F048F8FA
:105110004FF4037000F044F8002000F041F817202D
:1051200000F03EF8152000F03BF8002000F038F8C1
:10513000002000F035F8F02000F046F8032000F0E1
:105140002FF8292000F040F8D02000F03DF8002092
:1051500000F026F8BE2000F037F8052000F020F817
:10516000FE2000F01DF8012000F01AF8002000F0E9
:1051700017F8002000F014F8002000F011F8B82013
:1051800000F022F8032000F00BF8012000F008F8EE
:10519000BA2000F019F8012000F002F800BF80BD2D
:1051A00080B483B000AF0346FB80FB889BB2FB80DA
:1051B000044BFA8892B25A8000BF0C37BD465DF8A6
:1051C000047B70477E00006C80B483B000AF034660
:1051D000FB80FB889BB2FB80044BFA8892B21A805A
:1051E00000BF0C37BD465DF8047B70477E00006C45
:1051F00080B483B000AF03460A46FB801346BB80F1
:10520000054AFB881380044ABB88538000BF0C37D3
:10521000BD465DF8047B70477E00006C80B483B0AF
:1052200000AF064B5B889BB2FB80FB889BB21846A5
:105230000C37BD465DF8047B704700BF7E00006CF4
:1052400080B400AF044B054A12891A8000BFBD46E6
:105250005DF8047B704700BF7E00006C8444002032
:1052600080B582B000AF03460A46FB801346BB8080
:10527000654B9B8841F66312934267D1624B9B79E1
:10528000002B1ED1604B1A88FB88D31A9BB2013BBE
:10529000FB805D4B5B891846FFF796FF0020FFF708
:1052A0007FFF0020FFF77CFFFB881B0A9BB218469C
:1052B000FFF776FFFB88DBB29BB21846FFF770FF63
:1052C00021E0514B5B891846FFF77EFFFB881B0AE4
:1052D0009BB21846FFF764FFFB88DBB29BB218460F
:1052E000FFF75EFF484B1B88013B1B129BB2184621
:1052F000FFF756FF444B1B88013B9BB2DBB29BB2CE
:105300001846FFF74DFF404B9B891846FFF75CFF9F
:10531000BB881B0A9BB21846FFF742FFBB88DBB273
:105320009BB21846FFF73CFF374B5B88013B1B12D3
:105330009BB21846FFF734FF334B5B88013B9BB2AF
:10534000DBB29BB21846FFF72BFF58E02E4B9B8831
:1053500045F21052934230D12B4B5B891846FFF730
:1053600033FFFB881B0A9BB21846FFF719FF264B39
:105370005B8901339BB21846FFF726FFFB88DBB23F
:105380009BB21846FFF70CFF1F4B9B891846FFF78F
:105390001BFFBB881B0A9BB21846FFF701FF1A4B85
:1053A0009B8901339BB21846FFF70EFFBB88DBB227
:1053B0009BB21846FFF7F4FE21E0134B5B891846B9
:1053C000FFF702FFFB881B0A9BB21846FFF7E8FEB7
:1053D000FB88DBB29BB21846FFF7E2FE0A4B9B89C3
:1053E0001846FFF7F1FEBB881B0A9BB21846FFF771
:1053F000D7FEBB88DBB29BB21846FFF7D1FE00BFD9
:105400000837BD4680BD00BF8444002080B584B00D
:1054100000AF0346FB710023FB810023BB81994B46
:105420009B79012B05D1974B9B8841F663129342E0
:1054300009D1944B9B79002B34D1924B9B8841F638
:10544000631293422ED1FB79072B2BD801A252F87D
:1054500023F000BF755400087B54000881540008F5
:10546000875400088D54000893540008995400088C
:105470009F5400080623FB7114E00723FB7111E021
:105480000423FB710EE00523FB710BE00123FB718C
:1054900008E00023FB7105E00323FB7102E0022317
:1054A000FB7100BFFB79072B35D801A252F823F01E
:1054B00017550008D1540008DB540008E5540008D3
:1054C000EF540008F9540008035500080D55000872
:1054D000FB8943F08003FB811DE0FB8943F040031F
:1054E000FB8118E0FB8943F0C003FB8113E0FB89DB
:1054F00043F02003FB810EE0FB8943F06003FB8156
:1055000009E0FB8943F0A003FB8104E0FB8943F041
:10551000E003FB8100BF3623BB815A4B9B8845F2D9
:105520001052934202D14FF45853BB81554B9B8884
:1055300049F24132934205D0524B9B8847F289721F
:10554000934203D1FB8943F00803FB81FA89BB89AD
:1055500011461846FFF74CFE4A4B9B8841F66312F2
:10556000934225D0FB8903F02003002B10D0454B3C
:105570001A88444B5B889A421AD2424B1B887B8123
:10558000404B5A883F4B1A803E4A7B8953800FE03C
:105590003C4B1A883B4B5B889A4209D9394B1B8894
:1055A0007B81384B5A88374B1A80364A7B89538027
:1055B000344B9B8845F21052934265D1314B5B8945
:1055C0001846FFF701FE0020FFF7EAFD2D4B5B892F
:1055D00001339BB21846FFF7F7FD0020FFF7E0FD0F
:1055E000284B5B8902339BB21846FFF7EDFD254B34
:1055F0001B88013B1B129BB21846FFF7D1FD214BC4
:105600005B8903339BB21846FFF7DEFD1D4B1B88F9
:10561000013B9BB2DBB29BB21846FFF7C1FD194BB1
:105620009B891846FFF7D0FD0020FFF7B9FD154B09
:105630009B8901339BB21846FFF7C6FD0020FFF798
:10564000AFFD104B9B8902339BB21846FFF7BCFDA0
:105650000C4B5B88013B1B129BB21846FFF7A0FD69
:10566000084B9B8903339BB21846FFF7ADFD054BF2
:105670005B88013B9BB2DBB29BB21846FFF790FD03
:105680003AE000BF844400201D4B5B891846FFF7B9
:105690009BFD0020FFF784FD0020FFF781FD184BE4
:1056A0001B88013B1B129BB21846FFF779FD144B78
:1056B0001B88013B9BB2DBB29BB21846FFF770FD23
:1056C0000F4B9B891846FFF77FFD0020FFF768FD11
:1056D0000020FFF765FD0A4B5B88013B1B129BB264
:1056E0001846FFF75DFD064B5B88013B9BB2DBB2C2
:1056F0009BB21846FFF754FD00BF1037BD4680BD72
:105700008444002080B582B000AF03463A60FB803D
:105710000B46BB80BA88FB8811461846FFF7A0FDF0
:10572000FFF78EFD034B3A6892B25A8000BF0837EC
:10573000BD4680BD7E00006C80B582B000AF0346E0
:10574000FB71BE20FFF740FD0520FFF729FDFB7927
:105750001846FAF7F7FE10A3D3E90023FAF75CFF27
:1057600002460B4610461946FBF72EFA03469BB23B
:105770001846FFF715FD0120FFF712FDFF20FFF788
:105780000FFD0020FFF70CFD0020FFF709FD00BF13
:105790000837BD4680BD00BF666666666666044023
:1057A00080B582B000AF0346FB71584AFB79937114
:1057B000FB79002B51D1554BF0221A80534B4FF4FB
:1057C000A0725A80514B9B8845F21052934214D1DB
:1057D0004E4B4FF430521A814C4B4FF428525A81A1
:1057E0004A4B4FF42C529A81484B4FF4F0721A8076
:1057F000464B4FF448725A8020E0444B9B8841F658
:105800006312934211D1414B2C221A813F4B2B2220
:105810005A813E4B2A229A813C4B4FF4F0721A80F7
:105820003A4B4FF448725A8008E0384B2C221A81C8
:10583000364B2A225A81354B2B229A81334B9B8837
:1058400045F21032934259D1304B4FF4A0721A8076
:105850002E4B4FF4F0725A8050E02C4B4FF4A07254
:105860001A802A4BF0225A80284B9B8845F210520E
:10587000934214D1254B4FF430521A81234B4FF4ED
:1058800028525A81214B4FF42C529A811F4B4FF4CE
:1058900048721A801D4B4FF4F0725A8020E01B4B67
:1058A0009B8841F66312934211D1184B2C221A8126
:1058B000164B2A225A81154B2B229A81134B4FF4F7
:1058C00048721A80114B4FF4F0725A8008E00F4B67
:1058D0002C221A810D4B2A225A810C4B2B229A81A1
:1058E0000A4B9B8845F21032934207D1074B4FF485
:1058F000F0721A80054B4FF4A0725A800020FFF717
:1059000085FD00BF0837BD4680BD00BF8444002030
:1059100080B588B000AFD320FFF756FCFFF77EFCC0
:1059200003461A46894B9A80FFF778FC03461A46CD
:10593000864B9A80FFF772FC03461A46834B9A8087
:10594000824B9B881B029AB2804B9A80FFF766FCC1
:1059500003461A467D4B9B8813439AB27B4B9A8031
:105960007A4B9B8849F24132934200F0CA8004206E
:10597000FFF72AFCFFF752FC03461A46734B9A8046
:10598000FFF74CFC03461A46704B9A80FFF746FC23
:1059900003461A466D4B9A806C4B9B881B029AB249
:1059A0006A4B9A80FFF73AFC03461A46674B9B887E
:1059B00013439AB2654B9A80644B9B8848F25252CB
:1059C000934203D1614B47F289729A805F4B9B8867
:1059D00047F28972934200F09480D420FFF7F4FBE1
:1059E000FFF71CFC03461A46584B9A80FFF716FC3B
:1059F00003461A46554B9A80FFF710FC03461A4699
:105A0000524B9A80514B9B881B029AB24F4B9A8003
:105A1000FFF704FC03461A464C4B9B8813439AB28B
:105A20004A4B9A80494B9B8845F21032934268D08A
:105A300055214FF47040FFF7DBFBAA214FF2010024
:105A4000FFF7D6FB52214FF20200FFF7D1FB0821EE
:105A50004FF20300FFF7CCFB01214FF20400FFF7E8
:105A6000C7FB4FF44540FFF7AFFBFFF7D7FB0346FB
:105A70001A46364B9A80354B9B881B029AB2334BA1
:105A80009A804CF20150FFF79FFBFFF7C7FB0346DC
:105A90001A462E4B9B8813439AB22C4B9A800520B2
:105AA00004F09DF8294B9B8845F21052934228D070
:105AB000A120FFF789FBFFF7B1FB03461A46234BF2
:105AC0009A80FFF7ABFB03461A46204B9A801F4B88
:105AD0009B881B029AB21D4B9A80FFF79FFB0346DF
